{
  "_format": "hh-sol-artifact-1",
  "contractName": "Faucet",
  "sourceName": "contracts/Faucet.sol",
  "abi": [
    {
      "inputs": [
        {
          "internalType": "address",
          "name": "_faucetTokenA",
          "type": "address"
        }
      ],
      "stateMutability": "nonpayable",
      "type": "constructor"
    },
    {
      "inputs": [
        {
          "internalType": "uint256",
          "name": "",
          "type": "uint256"
        }
      ],
      "name": "allUsers",
      "outputs": [
        {
          "internalType": "address",
          "name": "_userAddress",
          "type": "address"
        },
        {
          "internalType": "uint256",
          "name": "userBalance",
          "type": "uint256"
        },
        {
          "internalType": "uint256",
          "name": "_lastDripTime",
          "type": "uint256"
        },
        {
          "internalType": "bool",
          "name": "hasReceived",
          "type": "bool"
        }
      ],
      "stateMutability": "view",
      "type": "function"
    },
    {
      "inputs": [
        {
          "internalType": "address",
          "name": "",
          "type": "address"
        }
      ],
      "name": "balances",
      "outputs": [
        {
          "internalType": "uint256",
          "name": "",
          "type": "uint256"
        }
      ],
      "stateMutability": "view",
      "type": "function"
    },
    {
      "inputs": [],
      "name": "dripToken",
      "outputs": [
        {
          "internalType": "uint256",
          "name": "",
          "type": "uint256"
        }
      ],
      "stateMutability": "nonpayable",
      "type": "function"
    },
    {
      "inputs": [],
      "name": "faucetTokenA",
      "outputs": [
        {
          "internalType": "address",
          "name": "",
          "type": "address"
        }
      ],
      "stateMutability": "view",
      "type": "function"
    },
    {
      "inputs": [],
      "name": "faucetTokenB",
      "outputs": [
        {
          "internalType": "address",
          "name": "",
          "type": "address"
        }
      ],
      "stateMutability": "view",
      "type": "function"
    },
    {
      "inputs": [],
      "name": "getFaucetBalance",
      "outputs": [
        {
          "internalType": "uint256",
          "name": "",
          "type": "uint256"
        }
      ],
      "stateMutability": "view",
      "type": "function"
    },
    {
      "inputs": [],
      "name": "owner",
      "outputs": [
        {
          "internalType": "address",
          "name": "",
          "type": "address"
        }
      ],
      "stateMutability": "view",
      "type": "function"
    },
    {
      "inputs": [
        {
          "internalType": "uint256",
          "name": "_amount",
          "type": "uint256"
        }
      ],
      "name": "receiveDonation",
      "outputs": [],
      "stateMutability": "nonpayable",
      "type": "function"
    },
    {
      "inputs": [
        {
          "internalType": "uint256",
          "name": "_amount",
          "type": "uint256"
        }
      ],
      "name": "refillFaucet",
      "outputs": [],
      "stateMutability": "nonpayable",
      "type": "function"
    },
    {
      "inputs": [
        {
          "internalType": "address",
          "name": "newOwner",
          "type": "address"
        }
      ],
      "name": "transferOwnership",
      "outputs": [],
      "stateMutability": "nonpayable",
      "type": "function"
    }
  ],
  "bytecode": "0x60806040523480156200001157600080fd5b506040516200138e3803806200138e833981810160405281019062000037919062000129565b336000806101000a81548173ffffffffffffffffffffffffffffffffffffffff021916908373ffffffffffffffffffffffffffffffffffffffff16021790555080600160006101000a81548173ffffffffffffffffffffffffffffffffffffffff021916908373ffffffffffffffffffffffffffffffffffffffff160217905550506200015b565b600080fd5b600073ffffffffffffffffffffffffffffffffffffffff82169050919050565b6000620000f182620000c4565b9050919050565b6200010381620000e4565b81146200010f57600080fd5b50565b6000815190506200012381620000f8565b92915050565b600060208284031215620001425762000141620000bf565b5b6000620001528482850162000112565b91505092915050565b611223806200016b6000396000f3fe608060405234801561001057600080fd5b506004361061009e5760003560e01c8063a2bdedf411610066578063a2bdedf41461014b578063a6e340c61461017e578063d70c03bc1461019a578063f1f959a6146101b6578063f2fde38b146101d45761009e565b806327e235e3146100a3578063335bbf11146100d35780635182aa5f146100f15780638bed68b91461010f5780638da5cb5b1461012d575b600080fd5b6100bd60048036038101906100b89190610be9565b6101f0565b6040516100ca9190610c2f565b60405180910390f35b6100db610208565b6040516100e89190610c2f565b60405180910390f35b6100f96104f1565b6040516101069190610c59565b60405180910390f35b610117610517565b6040516101249190610c59565b60405180910390f35b61013561053d565b6040516101429190610c59565b60405180910390f35b61016560048036038101906101609190610ca0565b610561565b6040516101759493929190610ce8565b60405180910390f35b61019860048036038101906101939190610ca0565b6105ce565b005b6101b460048036038101906101af9190610ca0565b6107e2565b005b6101be6109a3565b6040516101cb9190610c2f565b60405180910390f35b6101ee60048036038101906101e99190610be9565b610a46565b005b60086020528060005260406000206000915090505481565b60008067016345785d8a0000905080600160009054906101000a900473ffffffffffffffffffffffffffffffffffffffff1673ffffffffffffffffffffffffffffffffffffffff166370a08231306040518263ffffffff1660e01b81526004016102729190610c59565b602060405180830381865afa15801561028f573d6000803e3d6000fd5b505050506040513d601f19601f820116820180604052508101906102b39190610d42565b116102f3576040517f08c379a00000000000000000000000000000000000000000000000000000000081526004016102ea90610dcc565b60405180910390fd5b620151806003600201546103079190610e1b565b421015610349576040517f08c379a000000000000000000000000000000000000000000000000000000000815260040161034090610e9b565b60405180910390fd5b33600360000160006101000a81548173ffffffffffffffffffffffffffffffffffffffff021916908373ffffffffffffffffffffffffffffffffffffffff1602179055504260036002018190555060016003800160006101000a81548160ff021916908315150217905550600160009054906101000a900473ffffffffffffffffffffffffffffffffffffffff1673ffffffffffffffffffffffffffffffffffffffff1663a9059cbb33836040518363ffffffff1660e01b8152600401610411929190610ebb565b6020604051808303816000875af1158015610430573d6000803e3d6000fd5b505050506040513d601f19601f820116820180604052508101906104549190610f10565b5080600860003373ffffffffffffffffffffffffffffffffffffffff1673ffffffffffffffffffffffffffffffffffffffff16815260200190815260200160002060008282546104a49190610e1b565b92505081905550600860003373ffffffffffffffffffffffffffffffffffffffff1673ffffffffffffffffffffffffffffffffffffffff1681526020019081526020016000205491505090565b600160009054906101000a900473ffffffffffffffffffffffffffffffffffffffff1681565b600260009054906101000a900473ffffffffffffffffffffffffffffffffffffffff1681565b60008054906101000a900473ffffffffffffffffffffffffffffffffffffffff1681565b6007818154811061057157600080fd5b90600052602060002090600402016000915090508060000160009054906101000a900473ffffffffffffffffffffffffffffffffffffffff16908060010154908060020154908060030160009054906101000a900460ff16905084565b3373ffffffffffffffffffffffffffffffffffffffff1660008054906101000a900473ffffffffffffffffffffffffffffffffffffffff1673ffffffffffffffffffffffffffffffffffffffff161461065c576040517f08c379a000000000000000000000000000000000000000000000000000000000815260040161065390610f89565b60405180910390fd5b80600160009054906101000a900473ffffffffffffffffffffffffffffffffffffffff1673ffffffffffffffffffffffffffffffffffffffff1663dd62ed3e33306040518363ffffffff1660e01b81526004016106ba929190610fa9565b602060405180830381865afa1580156106d7573d6000803e3d6000fd5b505050506040513d601f19601f820116820180604052508101906106fb9190610d42565b101561073c576040517f08c379a00000000000000000000000000000000000000000000000000000000081526004016107339061101e565b60405180910390fd5b600160009054906101000a900473ffffffffffffffffffffffffffffffffffffffff1673ffffffffffffffffffffffffffffffffffffffff166323b872dd3330846040518463ffffffff1660e01b815260040161079b9392919061103e565b6020604051808303816000875af11580156107ba573d6000803e3d6000fd5b505050506040513d601f19601f820116820180604052508101906107de9190610f10565b5050565b60008111610825576040517f08c379a000000000000000000000000000000000000000000000000000000000815260040161081c906110c1565b60405180910390fd5b80600860003373ffffffffffffffffffffffffffffffffffffffff1673ffffffffffffffffffffffffffffffffffffffff1681526020019081526020016000205410156108a7576040517f08c379a000000000000000000000000000000000000000000000000000000000815260040161089e9061112d565b60405180910390fd5b600160009054906101000a900473ffffffffffffffffffffffffffffffffffffffff1673ffffffffffffffffffffffffffffffffffffffff166323b872dd3330846040518463ffffffff1660e01b81526004016109069392919061103e565b6020604051808303816000875af1158015610925573d6000803e3d6000fd5b505050506040513d601f19601f820116820180604052508101906109499190610f10565b5080600860003373ffffffffffffffffffffffffffffffffffffffff1673ffffffffffffffffffffffffffffffffffffffff1681526020019081526020016000206000828254610999919061114d565b9250508190555050565b6000600160009054906101000a900473ffffffffffffffffffffffffffffffffffffffff1673ffffffffffffffffffffffffffffffffffffffff166370a08231306040518263ffffffff1660e01b8152600401610a009190610c59565b602060405180830381865afa158015610a1d573d6000803e3d6000fd5b505050506040513d601f19601f82011682018060405250810190610a419190610d42565b905090565b3373ffffffffffffffffffffffffffffffffffffffff1660008054906101000a900473ffffffffffffffffffffffffffffffffffffffff1673ffffffffffffffffffffffffffffffffffffffff1614610ad4576040517f08c379a0000000000000000000000000000000000000000000000000000000008152600401610acb90610f89565b60405180910390fd5b600073ffffffffffffffffffffffffffffffffffffffff168173ffffffffffffffffffffffffffffffffffffffff1603610b43576040517f08c379a0000000000000000000000000000000000000000000000000000000008152600401610b3a906111cd565b60405180910390fd5b806000806101000a81548173ffffffffffffffffffffffffffffffffffffffff021916908373ffffffffffffffffffffffffffffffffffffffff16021790555050565b600080fd5b600073ffffffffffffffffffffffffffffffffffffffff82169050919050565b6000610bb682610b8b565b9050919050565b610bc681610bab565b8114610bd157600080fd5b50565b600081359050610be381610bbd565b92915050565b600060208284031215610bff57610bfe610b86565b5b6000610c0d84828501610bd4565b91505092915050565b6000819050919050565b610c2981610c16565b82525050565b6000602082019050610c446000830184610c20565b92915050565b610c5381610bab565b82525050565b6000602082019050610c6e6000830184610c4a565b92915050565b610c7d81610c16565b8114610c8857600080fd5b50565b600081359050610c9a81610c74565b92915050565b600060208284031215610cb657610cb5610b86565b5b6000610cc484828501610c8b565b91505092915050565b60008115159050919050565b610ce281610ccd565b82525050565b6000608082019050610cfd6000830187610c4a565b610d0a6020830186610c20565b610d176040830185610c20565b610d246060830184610cd9565b95945050505050565b600081519050610d3c81610c74565b92915050565b600060208284031215610d5857610d57610b86565b5b6000610d6684828501610d2d565b91505092915050565b600082825260208201905092915050565b7f496e73756666696369656e74204661756365742042616c616e63650000000000600082015250565b6000610db6601b83610d6f565b9150610dc182610d80565b602082019050919050565b60006020820190508181036000830152610de581610da9565b9050919050565b7f4e487b7100000000000000000000000000000000000000000000000000000000600052601160045260246000fd5b6000610e2682610c16565b9150610e3183610c16565b9250828201905080821115610e4957610e48610dec565b5b92915050565b7f5761697420616674657220323468727300000000000000000000000000000000600082015250565b6000610e85601083610d6f565b9150610e9082610e4f565b602082019050919050565b60006020820190508181036000830152610eb481610e78565b9050919050565b6000604082019050610ed06000830185610c4a565b610edd6020830184610c20565b9392505050565b610eed81610ccd565b8114610ef857600080fd5b50565b600081519050610f0a81610ee4565b92915050565b600060208284031215610f2657610f25610b86565b5b6000610f3484828501610efb565b91505092915050565b7f596f7520617265206e6f7420746865206f776e65720000000000000000000000600082015250565b6000610f73601583610d6f565b9150610f7e82610f3d565b602082019050919050565b60006020820190508181036000830152610fa281610f66565b9050919050565b6000604082019050610fbe6000830185610c4a565b610fcb6020830184610c4a565b9392505050565b7f417070726f76616c207265717569726564000000000000000000000000000000600082015250565b6000611008601183610d6f565b915061101382610fd2565b602082019050919050565b6000602082019050818103600083015261103781610ffb565b9050919050565b60006060820190506110536000830186610c4a565b6110606020830185610c4a565b61106d6040830184610c20565b949350505050565b7f496e76616c696420616d6f756e74000000000000000000000000000000000000600082015250565b60006110ab600e83610d6f565b91506110b682611075565b602082019050919050565b600060208201905081810360008301526110da8161109e565b9050919050565b7f496e73756666696369656e742042616c616e6365000000000000000000000000600082015250565b6000611117601483610d6f565b9150611122826110e1565b602082019050919050565b600060208201905081810360008301526111468161110a565b9050919050565b600061115882610c16565b915061116383610c16565b925082820390508181111561117b5761117a610dec565b5b92915050565b7f496e76616c6964206e6577206f776e6572000000000000000000000000000000600082015250565b60006111b7601183610d6f565b91506111c282611181565b602082019050919050565b600060208201905081810360008301526111e6816111aa565b905091905056fea2646970667358221220dc18a84aa555869b9625f288076a0d6691c97f3cde5bc1785388c83798449ff064736f6c63430008140033",
  "linkReferences": {},
  "deployedLinkReferences": {}
}